:1000000000308A00DD280000FF00030E8301A100FC
:100010000A08A0008A010408A2007708A300780853
:10002000A4007908A5007A08A600831383128B1D0B
:100030001B280B1830288B1E1F280B193328220869
:1000400084002308F7002408F8002508F900260892
:10005000FA0020088A00210E8300FF0E7F0E09009F
:100060008A110A1236288A110A12A628061E3B286F
:100070000130A7004B28861E40280230A7004B28DD
:10008000061F45280330A7004B28861F4A28043046
:10009000A7004B28A701270B6528B50A3508093C9E
:1000A00003186428B501B40A3408093C031864280D
:1000B000B401B30A3308093C03186428B301B20A37
:1000C0003208093C031CB20194282708023C031D96
:1000D0007B28B40A3408093C03187A28B401B30A0F
:1000E0003308093C03187A28B301B20A3208093CE4
:1000F000031CB20194282708033C031D8B28B30A74
:100100003308093C03188A28B301B20A3208093CB3
:10011000031CB20194282708043C031D9428B20A4A
:100120003208093C031CB2010B100B108A110A1291
:100130001F2836308400831300080319A528523085
:10014000F700F70BA128800B9F280800833081005F
:10015000061428303207840083130008B600880094
:100160000530B60099200610861428303307840025
:1001700083130008B60088000530B6009920861069
:10018000061528303407840083130008B600880061
:100190000530B600992006118615283035078400F1
:1001A00083130008B60088000530B6009920861138
:1001B0000B110B118A110A121F28A701B201B301FA
:1001C000B401B50183161F149F141F159F118313CB
:1001D0001F30830540308312A8007930A9002430F5
:1001E000AA003030AB001930AC001230AD00023044
:1001F000AE007830AF00B0011030B10083160912A4
:10020000831290010030F8009200003083169200B3
:100210001F149F141F159F1183121F10F030970594
:100220009D05831686000030880083120610861014
:100230000611861183160108C039810083308312AC
:0E02400081008B168B15C0308B0425296300BE
:02400E00393F38
:00000001FF
;PIC16F877
;CRC=75EA  CREATED="13-Aðu-23 12:04"
